:060000000A128A11142906
:10000800F000030EF1000B1812280B1918280B1119
:100018000B10710E8300F00E700E0900061F870A80
:10002800861F87030B100728F2168801F630810017
:040038000B11072879
:100200008A010A140F3982073F3406345B344F34B5
:1002100066346D347D3407347F34673477347C340E
:1002200039345E3479347134031383160F128F120C
:100230000F17031783168801890103138316061706
:100240008617E03085000030870080308800031377
:1002500083168113151795178112811101108114CE
:100260000115031383161617961703138312060836
:1002700003138312A8308B000313831285018601B8
:1002800087018801F201F801F901FA01FB01FC0183
:10029000FD018101F6308100061C00007214F21A83
:1002A00072294F2907080F390021F300070E0F3973
:1002B0000021F40008000708FD00FB017D08FC0098
:1002C0006430FC0203196929031C6829FB0A6029B0
:1002D0006D29FB0A6D290030FB007B080F390021D6
:1002E000F700080052215B21F21272188729F218D8
:1002F0008E2972199529F2199C29721A80294F2981
:1003000073088800FE308500721272144F29740839
:100310008800FD3085007210F2144F29750888009E
:10032000FB308500F21072154F2976088800F730EF
:1003300085007211F2154F29F7088800EF3085000B
:08034000F21172164F290800AA
:04400E00D430FF3F6C
:00000001FF
