:060000000A128A11142906
:10000800F000030EF1000B1812280B1918280B1119
:100018000B10710E8300F00E700E0900061F870A80
:10002800861F87030B100728F2168801F630810017
:040038000B11072879
:100200008A010A140F3982073F3406345B344F34B5
:1002100066346D347D3407347F34673477347C340E
:1002200039345E3479347134031383160F128F120C
:100230000F17031783168801890103138316061706
:100240008617E03085000030870080308800031377
:1002500083168113151795178112811101108114CE
:100260000115031383161617961703138312060836
:1002700003138312A8308B000313831285018601B8
:1002800087018801F2018101F6308100061C00001F
:100290007214F21A5529492907080F390021F30071
:1002A000070E0F390021F40008004C21F2127218D9
:1002B0006929F218702972197529F2197A29721AA6
:1002C000622949297308880001308500721272146E
:1002D000492974088800023085007210F2144929F7
:1002E00004308500F210721549290830850072111A
:0E02F000F215492910308500F21172164929C5
:04400E00D430FF3F6C
:00000001FF
