:060000000A128A11142906
:10000800A000030EA1000B1812200B1918200B11C9
:100018000B10210E8300A00E200E0900061C870A73
:10002800861C87030B1008000B11FF3081000800A5
:100200008A010A140F3982073F3406345B344F34B5
:1002100066346D347D3407347F34673477347C340E
:1002200039345E3479347134031383160F128F120C
:100230000F17031783168801890103138316061409
:100240008614E0308500003087008030880003137A
:1002500083168113151495148112811101148114D0
:10026000011503138316161496140313831206083C
:1002700003138312A8308B000313831285018601B8
:1002800087018801A2018101FF308100061C000066
:10029000070E002188008514FF30223C4829080001
:04400E00D430FF3F6C
:00000001FF
