:060000000A128A11142906
:10000800F000030EF1000B1812280B1918280B1119
:100018000B10710E8300F00E700E0900061F870A80
:10002800861F87030B100728F2168801F630810017
:040038000B11072879
:100200008A010A140F3982073F3406345B344F34B5
:1002100066346D347D3407347F34673477347C340E
:1002200039345E3479347134031383160F128F120C
:100230000F17031783168801890103138316061706
:100240008617E03085000030870080308800031377
:1002500083168113151795178112811101108114CE
:100260000115031383161617961703138312060836
:1002700003138312A8308B000313831285018601B8
:1002800087018801F201F801F901FA01FC01FE0180
:10029000FF01FD01FB018101F6308100061C000019
:1002A0007214F21A8729512907080F390021F30027
:1002B000070E0F390021F40008000708FB00F801C1
:1002C000F901FA016430FB02F80A0318622964306C
:1002D000FB07F80378080F390021F7000A30FB020A
:1002E000F90A03186E290A30FB07F90379080F3958
:1002F0000021F6000130FB02FA0A03187A290130C6
:10030000FB07FA037A080F390021F5000800542191
:100310005D21F21272189C29F218A3297219AA29D8
:10032000F219B129721A9529512973088800FE30F3
:10033000850072127214512974088800FD308500FE
:100340007210F214512975088800FB308500F210F4
:100350007215512976088800F73085007211F21560
:10036000512977088800EF308500F2117216512963
:04400E00D430FF3F6C
:00000001FF
