:060000000A128A11142906
:10000800F000030EF1000B1812280B1918280B1119
:100018000B10710E8300F00E700E0900061F870A80
:10002800861F87030B100728F2168801F630810017
:040038000B11072879
:100200008A010A140F3982073F3406345B344F34B5
:1002100066346D347D3407347F34673477347C340E
:1002200039345E3479347134031383160F128F120C
:100230000F17031783168801890103138316061706
:100240008617E03085000030870080308800031377
:1002500083168113151795178112811101108114CE
:100260000115031383161617961703138312060836
:1002700003138312A8308B000313831285018601B8
:1002800087018801F201F801F901FA01FB01FC0183
:10029000FE01FF01FD018101F6308100061C000016
:1002A0007214F21A8729512907080F390021F30027
:1002B000070E0F390021F4000800FB017E08FC0046
:1002C0007D30FC0203196929031C6829FB0A602997
:1002D0006D29FB0A6D290030FB0008000708FE00AD
:1002E0006430FD005D217B080F390021F7007B0899
:1002F000FE02FF0A0A307F02031D77290A30FD0043
:100300005D217B080F390021F60008000800542108
:10031000F21272189B29F218A2297219A929F2194E
:10032000B029721A9429512973088800FE3085007B
:1003300072127214512974088800FD308500721001
:10034000F214512975088800FB308500F2107215EF
:100350005129F6088800F73085007211F2155129ED
:0E036000F7088800EF308500F211721651295F
:04400E00D430FF3F6C
:00000001FF
