:060000000A128A11142906
:10000800F000030EF1000B1812280B1918280B1119
:100018000B10710E8300F00E700E0900061F870A80
:10002800861F87030B100728F2168801F630810017
:040038000B11072879
:100200008A010A140F3982073F3406345B344F34B5
:1002100066346D347D3407347F34673477347C340E
:1002200039345E3479347134031383160F128F120C
:100230000F17031783168801890103138316061706
:100240008617E03085000030870080308800031377
:1002500083168113151795178112811101108114CE
:100260000115031383161617961703138312060836
:1002700003138312A8308B000313831285018601B8
:1002800087018801F201F801F901FA01FB01FC0183
:100290008101F6308100061C00007214F21A7129E7
:1002A0004E2907080F390021F300070E0F390021EE
:1002B000F400FB011430000703196C291430FC0012
:1002C0000030FC0203196A29031C6829FB0A602913
:1002D00007156E29FB0A6E290030FB007B0887009A
:1002E00008005121F21272188529F2188C2972190E
:1002F0009129F2199629721A7E294E2973088800CD
:10030000FE308500721272144E2974088800FD3088
:1003100085007210F2144E29FB308500F210721520
:100320004E29F73085007211F2154E29EF30850005
:08033000F21172164E290800BB
:04400E00D430FF3F6C
:00000001FF
