:10020000031383160F128F120F170317831688011B
:10021000890103138316051485140710871007112D
:100220008711081088100811881108128812081305
:1002300009100730810003138312850187018801AB
:100240008901810150308B000F3902077634063462
:100250005B344F3466346D347D3407347F34673417
:1002600077347C3439345E3479347134870A4321ED
:100270004321432143214321432143214321362963
:10028000091487013629051C4D21851C5421C130D4
:1002900081000B110B1D4A290800051C4D29880AF5
:1002A000A008242188003629851C54298803A00829
:1002B0002421880036298801881408150816881614
:1002C000081788018814081536298801081488142D
:1002D0008815081608173629880108148814081587
:1002E00088150817362988018814081588160817F4
:1002F0003629880108140815881588160817362924
:100300008801081408158815081688160817362954
:1003100088010814881408153629880108148814DF
:100320000815881508168816081736298801081434
:1003300088140815881608173629880108148814A7
:100340000815081688160817362988010815881513
:100350000816881608173629880108148815081603
:100360008816362988018814081588150816081774
:1003700036298801081488150816881608173629A2
:0C03800088010814081688160817362992
:04400E00E43FFF3F4D
:00000001FF
