:1002000003178316880189010313831605148514C7
:10021000071087100711871108108810081188111E
:100220000812881208138813073081000313831201
:10023000850187018801810150308B00272127210A
:100240002721272127212721272127211E29051C96
:100250003121851C3521C13081000B110B1D2E2948
:100260000800051C3129870A1E29851C3529A00391
:100270001E29881408150800081488148815081603
:1002800008170800081488140815881508170800AE
:10029000881408158816081708000814081588150A
:1002A00088160817080008140815881508168816F7
:1002B0000817080008148814081508000814881482
:1002C00008158815081688160817080008148814D9
:1002D0000815881608170800081488140815081649
:1002E00088160817080008148814081588150816B9
:1002F000881608170800081408168816081708003A
:100300008814081588150816081708000814881599
:100310000816881608170800081408168816081703
:020320000800D3
:04400E00E43FFF3F4D
:00000001FF
