:060000000A128A11142906
:10000800F000030EF1000B1812280B1918280B1119
:100018000B10710E8300F00E700E0900061C870A83
:10002800861C87030B100728F2168801003085000C
:080038000A3081000B110728BA
:100200008A010A140F3982073F3406345B344F34B5
:1002100066346D347D3407347F34673477347C340E
:1002200039345E3479347134031383160F128F120C
:100230000F17031783168801890103138316061409
:100240008614E0308500003087008030880003137A
:1002500083168113151495148112811101108114D4
:10026000011503138316161496140313831206083C
:1002700003138312A8308B000313831285018601B8
:1002800087018801F20181010A308100061C00000B
:100290004C21F21A5529482907080F390021F3008B
:1002A000070E0F390021F4000800F21272186829B5
:1002B000F2186F2972197429F2197929721A6129B1
:1002C0004829730888000130850072127214482989
:1002D00074088800023085007210F2144829043036
:1002E0008500F21072154829083085007211F21548
:0C02F000482910308500F21172164829D0
:04400E00D430FF3F6C
:00000001FF
