:060000000A128A11142906
:10000800A000030EA1000B1810200B191620210EBA
:100018008300A00E200E0900061C850A861C850395
:0E0028000B100800ED3081000B11A20A080039
:100200008A010A140F3982073F3406345B344F34B5
:1002100066346D347D3407347F34673477347C340E
:1002200039345E3479347134031383160F128F120C
:100230000F17031783168801890103138316061409
:100240008614F030850080308700803088000313EA
:1002500083168113151495148112811101148114D0
:10026000011503138316161496140313831206083C
:1002700003138312A8308B000313831285018601B8
:10028000870188018101A301A201ED308100061CD4
:1002900000002208323C0319542123080021880061
:0E02A0000508002187004929A30AA2010800D1
:04400E00D430FF3F6C
:00000001FF
