:060000000A128A11142906
:10000800A000030EA1000B19880A061C1620861CE6
:100018001A200B10050800218700210E8300A00E6E
:10002800200E0900061C1628850A0800861C1A28B6
:040038008503080034
:100200008A010A140F3982073F3406345B344F34B5
:1002100066346D347D3407347F34673477347C340E
:1002200039345E3479347134031383160F128F120C
:100230000F17031783168801890103138316061409
:100240008614F030850080308700803088000313EA
:1002500083168113151495140114811401150313C9
:1002600083161614961403138312E8308B000313BD
:0E0270008312850186018701880181013E29E4
:04400E00D43FFF3F5D
:00000001FF
