:100220008A010A1482073F3406345B344F34663443
:100230006D347D3407347F34673477347C3439341B
:100240005E3479347134031383160F128F120F1733
:100250000317831688018901031383168516051673
:1002600005108510051185110710871007118711DA
:100270000810881008118811081288120813091034
:1002800006108610061186110730810003138312B1
:1002900085018701880186018901810150308B0029
:1002A00052215029051E5A21C13081000B110B1D0E
:1002B00057290800051E5A29800A000810218800C5
:1002C0000800851E612980030008102188000800AD
:04400E00E43FFF3F4D
:00000001FF
