:060000000A128A11142906
:100200008A010A140F3982073F3406345B344F34B5
:1002100066346D347D3407347F34673477347C340E
:1002200039345E3479347134031383160F128F120C
:100230000F17031783168801890103138316851688
:100240000516051085100511851107108710071177
:1002500087110810881008118811081288120813D5
:10026000091007308100031383128501870188017B
:1002700089018101A0014A214A214A214A214A21BA
:100280004A214A214A210910870A20080702031936
:1002900062213B29051E5421851E5B21C13081004E
:1002A0000B110B1D51290800051E5429A00A200816
:1002B000002188000800851E5B29A003200800217A
:0A02C00088000800091487010800F7
:04400E00E43FFF3F4D
:00000001FF
