:060000000A128A11142906
:100200008A010A140F3982073F3406345B344F34B5
:1002100066346D347D3407347F34673477347C340E
:1002200039345E3479347134031383160F128F120C
:100230000F17031783168801890103138316851688
:100240000516051085100511851107108710071177
:1002500087110810881008118811081288120813D5
:10026000091007308100031383128501870188017B
:1002700089018101A00145214521452145214521D3
:10028000452145214521870A3B29051E4F21851E11
:100290005621C13081000B110B1D4C290800051E91
:1002A0004F29A00A2008002188000800851E562931
:0A02B000A0032008002188000800C8
:04400E00E43FFF3F4D
:00000001FF
