:060000000A128A11142906
:10000800F000030EF1000B1915280C181B288C188A
:1000180024200B110C108C10710E8300F00E700E42
:10002800090072158801F63081000B110728870A2C
:10003800031383120B308F00DC308E000C1007285E
:10004800910103138312850A8C10751C2F287518CB
:0A0058002D287510302875140728B4
:100200008A010A140F3982073F3406345B344F34B5
:1002100066346D347D3407347F34673477347C340E
:1002200039345E3479347134031383160F128F120C
:100230000F1781128111011481100115031383120C
:10024000A8308B008101F630810003138312101453
:100250009010101290160B308F00DC308E000313BC
:1002600083128B170B17031383160C140C10031334
:100270008312121592141214121792161216921556
:100280008C1003138316E63092000317831688013F
:10029000890103138316051087018801890103135F
:1002A00083128501870188018901F501751C5A298E
:1002B00072196429562907080F390021F300070E27
:1002C0000F390021F40008005B21721172187129A6
:1002D000F2186A297308880001308900F21072143C
:1002E000562974088800023089007210F2145629C9
:04400E00D430FF3F6C
:00000001FF
